{
  "contractName": "Coinflip",
  "abi": [
    {
      "anonymous": false,
      "inputs": [
        {
          "indexed": false,
          "internalType": "bool",
          "name": "result",
          "type": "bool"
        },
        {
          "indexed": false,
          "internalType": "uint256",
          "name": "value",
          "type": "uint256"
        }
      ],
      "name": "flipResult",
      "type": "event"
    },
    {
      "constant": true,
      "inputs": [],
      "name": "owner",
      "outputs": [
        {
          "internalType": "address",
          "name": "",
          "type": "address"
        }
      ],
      "payable": false,
      "stateMutability": "view",
      "type": "function"
    },
    {
      "constant": true,
      "inputs": [],
      "name": "maxCost",
      "outputs": [
        {
          "internalType": "uint256",
          "name": "",
          "type": "uint256"
        }
      ],
      "payable": false,
      "stateMutability": "view",
      "type": "function"
    },
    {
      "constant": false,
      "inputs": [],
      "name": "withdraw",
      "outputs": [],
      "payable": true,
      "stateMutability": "payable",
      "type": "function"
    },
    {
      "constant": false,
      "inputs": [],
      "name": "deposit",
      "outputs": [],
      "payable": true,
      "stateMutability": "payable",
      "type": "function"
    },
    {
      "constant": true,
      "inputs": [
        {
          "internalType": "address",
          "name": "userAddress",
          "type": "address"
        }
      ],
      "name": "getUserBalance",
      "outputs": [
        {
          "internalType": "uint256",
          "name": "balance",
          "type": "uint256"
        }
      ],
      "payable": false,
      "stateMutability": "view",
      "type": "function"
    },
    {
      "constant": false,
      "inputs": [
        {
          "internalType": "uint256",
          "name": "bet",
          "type": "uint256"
        }
      ],
      "name": "gamble",
      "outputs": [
        {
          "internalType": "bool",
          "name": "",
          "type": "bool"
        }
      ],
      "payable": true,
      "stateMutability": "payable",
      "type": "function"
    }
  ],
  "bytecode": "0x6080604052336000806101000a81548173ffffffffffffffffffffffffffffffffffffffff021916908373ffffffffffffffffffffffffffffffffffffffff1602179055506104be806100536000396000f3fe6080604052600436106100555760003560e01c806313517fea1461005a5780633ccfd60b14610085578063477348921461008f5780638da5cb5b146100f4578063d0e30db01461014b578063e43869d214610155575b600080fd5b34801561006657600080fd5b5061006f61019b565b6040518082815260200191505060405180910390f35b61008d6101c4565b005b34801561009b57600080fd5b506100de600480360360208110156100b257600080fd5b81019080803573ffffffffffffffffffffffffffffffffffffffff169060200190929190505050610260565b6040518082815260200191505060405180910390f35b34801561010057600080fd5b506101096102a9565b604051808273ffffffffffffffffffffffffffffffffffffffff1673ffffffffffffffffffffffffffffffffffffffff16815260200191505060405180910390f35b6101536102ce565b005b6101816004803603602081101561016b57600080fd5b81019080803590602001909291905050506102da565b604051808215151515815260200191505060405180910390f35b600060043073ffffffffffffffffffffffffffffffffffffffff1631816101be57fe5b04905090565b60006101cf33610260565b90506000600160003373ffffffffffffffffffffffffffffffffffffffff1673ffffffffffffffffffffffffffffffffffffffff168152602001908152602001600020819055503373ffffffffffffffffffffffffffffffffffffffff166108fc829081150290604051600060405180830381858888f1935050505015801561025c573d6000803e3d6000fd5b5050565b6000600160008373ffffffffffffffffffffffffffffffffffffffff1673ffffffffffffffffffffffffffffffffffffffff168152602001908152602001600020549050919050565b6000809054906101000a900473ffffffffffffffffffffffffffffffffffffffff1681565b6102d834336103d5565b565b60006102e461019b565b803411156102f157600080fd5b60018314806103005750600083145b61030957600080fd5b6000610313610426565b9050600084821415610378576001905061033060023402336103d5565b7f64d6b5674bd6b752ef2a4ad0690fdf47f78a9ab0973317275b9e1e0e4fa0133a818360405180831515151581526020018281526020019250505060405180910390a16103ca565b600090506103863433610438565b7f64d6b5674bd6b752ef2a4ad0690fdf47f78a9ab0973317275b9e1e0e4fa0133a818360405180831515151581526020018281526020019250505060405180910390a15b809350505050919050565b81600160008373ffffffffffffffffffffffffffffffffffffffff1673ffffffffffffffffffffffffffffffffffffffff168152602001908152602001600020600082825401925050819055505050565b60006002428161043257fe5b06905090565b81600160008373ffffffffffffffffffffffffffffffffffffffff1673ffffffffffffffffffffffffffffffffffffffff16815260200190815260200160002060008282540392505081905550505056fea265627a7a723158206a7f342db8d905c17f95fe71d48d7cb62fa345e8991c210822fc3e19dbce083d64736f6c634300050c0032",
  "source": "import \"./Ownable.sol\";\r\npragma solidity 0.5.12;\r\n\r\ncontract Coinflip is Ownable {\r\n\r\n  mapping (address => uint) userBalance;\r\n\r\n  modifier costMax(uint cost) {\r\n    require(msg.value <= cost);\r\n    _;\r\n  }\r\n\r\n  event flipResult(bool result, uint value);\r\n\r\n  function maxCost()\r\n  public\r\n  view\r\n  returns(uint)\r\n  {\r\n    // used division so there will always be money in the contract\r\n    return address(this).balance / 4 ;\r\n  }\r\n\r\n  function withdraw()\r\n  public\r\n  payable\r\n  {\r\n    uint toTransfer = getUserBalance(msg.sender);\r\n    userBalance[msg.sender] = 0;\r\n    msg.sender.transfer(toTransfer);\r\n  }\r\n\r\n  function deposit()\r\n  public\r\n  payable\r\n  {\r\n    addUserFunds(msg.value, msg.sender);\r\n  }\r\n\r\n  function getUserBalance(address userAddress)\r\n  public\r\n  view\r\n  returns(uint balance)\r\n  {\r\n    return userBalance[userAddress];\r\n  }\r\n\r\n  function random()\r\n  private\r\n  view\r\n  returns(uint)\r\n  {\r\n    return now % 2;\r\n  }\r\n\r\n  function gamble(uint bet)\r\n  public\r\n  payable\r\n  costMax(maxCost())\r\n  returns (bool)\r\n  {\r\n    require(bet == 1 || bet == 0);\r\n    uint res = random();\r\n    bool result;\r\n    if (res == bet) {\r\n      result = true;\r\n      addUserFunds(msg.value * 2, msg.sender);\r\n      emit flipResult(result, res);\r\n    } else {\r\n      result = false;\r\n      deductUserFunds(msg.value, msg.sender);\r\n      emit flipResult(result, res);\r\n    }\r\n\r\n    return result;\r\n  }\r\n\r\n  function deductUserFunds(uint amount, address userAddress)\r\n  private\r\n  {\r\n      userBalance[userAddress] -= amount;\r\n  }\r\n\r\n  function addUserFunds(uint amount, address userAddress)\r\n  private\r\n  {\r\n      userBalance[userAddress] += amount;\r\n  }\r\n\r\n}\r\n",
  "sourcePath": "C:/GitHub/ethereum-cource-advanced/eth201-phase1/contracts/Coinflip.sol",
  "compiler": {
    "name": "solc",
    "version": "0.5.12+commit.7709ece9.Emscripten.clang"
  },
  "schemaVersion": "3.3.3",
  "updatedAt": "2020-12-18T14:59:08.157Z",
  "networkType": "ethereum",
  "devdoc": {
    "methods": {}
  },
  "userdoc": {
    "methods": {}
  }
}